:100000000C9456000C9460000C9460000C946000FA
:100010000C9460000C9460000C9460000C946000E0
:100020000C9460000C9460000C9460000C946000D0
:100030000C9460000C9460000C9460000C946000C0
:100040000C9460000C9460000C9460000C946000B0
:100050000C9460000C9460000C9460000C946000A0
:100060000C9460000C9460000C9460000C94600090
:100070000C9460000C948E000C9460000C94600052
:100080000C9460000C9460000C9460000C94600070
:100090000C9460000C9460000C9460000C94600060
:1000A0000C9460000C9460000C94600011241FBE3E
:1000B000CFEFDAE0DEBFCDBF0E9462000C94B80043
:1000C0000C94000081E08AB983E084B91BB8EAE7A8
:1000D000F0E0808187608083ACE7B0E08C9180663F
:1000E0008C938081886A8083789480818064808307
:1000F00081E08BB92FEF39E698E1215030409040F4
:10010000E1F700C000001BB82FEF39E698E121505D
:1001100030409040E1F700C00000EBCF1F920F92FB
:100120000FB60F9211248F9380917900893C10F4BF
:1001300015B818C080917900893C38F08091790019
:100140008D3D18F481E085B90DC0809179008D3D19
:1001500038F0809179008B3E18F482E085B902C0B6
:1001600083E085B98F910F900FBE0F901F90189567
:04017000F894FFCF31
:00000001FF
