:100000000C9456000C9473000C9473000C947300C1
:100010000C9473000C9473000C9473000C94730094
:100020000C9473000C9473000C9473000C94730084
:100030000C9473000C9473000C9473000C94730074
:100040000C9473000C9473000C9473000C94730064
:100050000C9473000C9473000C9473000C94730054
:100060000C9473000C9473000C9473000C94730044
:100070000C9473000C94B0010C9473000C947300F6
:100080000C9473000C9473000C9473000C94730024
:100090000C9473000C9473000C9473000C94730014
:1000A0000C9473000C9473000C94730011241FBE05
:1000B000CFEFDAE0DEBFCDBF11E0A0E0B1E0ECEFC2
:1000C000F4E002C005900D92AA31B107D9F721E002
:1000D000AAE1B1E001C01D92A432B207E1F70E948B
:1000E00048010C947C020C9400002E9A00C02E98BB
:1000F0000895CF93DF93D82F662311F02C9A01C077
:100100002C982D9884B18F6084B9C5B1C07F8D2F94
:1001100082958F708C2B85B90E947500DF70DC2B67
:10012000D5B90E947500CF60C5B9DF91CF91089510
:10013000882311F02C9A01C02C982D9A84B1807FCD
:1001400084B92E9A00C093B12E9800C02E9A00C098
:1001500083B12E989295907F8F70892B089580E0BF
:100160000E9498008823DCF388E090E00197F1F783
:1001700080E00E9498000895CF93C82F0E94AF009E
:1001800060E08C2F0E947900CF910895611104C026
:1001900080580E94BC000895613021F480540E9470
:1001A000BC000895623021F48C560E94BC00089572
:1001B0008C520E94BC00089581E00E94BC0008950A
:1001C00082E00E94BC000895CF93C82F0E94AF0028
:1001D000CA30A1F4843148F0982F9054943138F00B
:1001E00084518C3230F484E505C080E403C084E19E
:1001F00001C080E080580E94BC0004C061E08C2FE8
:100200000E947900CF910895CF93DF93EC018991FB
:10021000882329F00E94E40089918111FBCFDF91AE
:10022000CF9108951F93CF93DF93182F84B18F67D9
:1002300084B9E0E0FAEF3197F1F7299A289A0E9401
:100240007500E0E0FEE43197F1F70E947500C0E030
:10025000D1E0FE013197F1F70E947500FE01319760
:10026000F1F728980E9475002197F1F788E20E9423
:10027000BC0088E00E94BC000E94DC0086E00E9476
:10028000BC00812F0E94BC00DF91CF911F91089587
:10029000EAE7F0E0808187608083ACE7B0E08C9192
:1002A00080668C938081886A808378948081806462
:1002B0008083E1E8F0E08081836080838CE00E94AD
:1002C00012010E94E00083E091E00E94040162E0DC
:1002D00080E00E94C60080E191E00E940401C9E72D
:1002E000D0E0809100018823A1F14AE050E06AE16A
:1002F00071E080910101909102010E94370260E05B
:100300008CE00E94C60086E191E00E94040160E05A
:100310008CE00E94C6008AE191E00E94040162E044
:1003200085E00E94C60086E191E00E94040162E03F
:1003300085E00E94C60088814AE050E06AE171E0F1
:1003400090E00E9437028AE191E00E94040110923D
:1003500000018FE19EE40197F1F700C00000C1CFDA
:100360001F920F920FB60F9211242F938F939F938A
:10037000EF93FF9380917900813D78F48091840020
:100380009091850081329E4408F467C010928100EC
:10039000109285001092840060C080917900813DA8
:1003A00008F445C080917900823E08F445C03FC002
:1003B00080910101909102018631910544F00D97E1
:1003C000909302018093010181E0809300011092DB
:1003D000810010928500109284003FC0E1E8F0E0B7
:1003E000808180818360808338C0809179008E3ED7
:1003F00060F133C08091010190910201883591052F
:1004000044F40D96909302018093010181E0809362
:1004100000011092810010928500109284001DC08E
:10042000E1E8F0E0808180818360808316C0809164
:100430007900823ED0F611C08091840090918500B1
:1004400081329E4408F0B4CFC9CF8091840090914E
:10045000850081329E4470F6E3CFFF91EF919F912A
:100460008F912F910F900FBE0F901F901895FB0149
:100470009F01E8944230C4F04532B4F44A3029F484
:1004800097FB1EF4909581959F4F642F77270E94CC
:100490006802805D8A330CF0895D8193CB010097FF
:1004A000A1F716F45DE251931082C9010C94580231
:1004B000DC01FC01672F71917723E1F7329704C0CB
:1004C0007C916D9370836291AE17BF07C8F3089556
:1004D000AA1BBB1B51E107C0AA1FBB1FA617B7076A
:1004E00010F0A61BB70B881F991F5A95A9F7809586
:0C04F0009095BC01CD010895F894FFCF59
:1004FC000164004272696768746E6573733A200018
:0A050C004144433A20002020200063
:00000001FF
