:100000000C9456020C9473020C9473020C947302B9
:100010000C9473020C9473020C9473020C9473028C
:100020000C9473020C9473020C9473020C9473027C
:100030000C9473020C9473020C9473020C9473026C
:100040000C9473020C9473020C9473020C9473025C
:100050000C9473020C9473020C9473020C9473024C
:100060000C9473020C9473020C9473020C9473023C
:100070000C9473020C94F2060C9473020C947302A9
:100080000C9473020C9473020C9473020C9473021C
:100090000C9473020C9473020C9473020C9473020C
:1000A0000C9473020C9473020C947302000101030C
:1000B000FF071F3EFCF8E0C08000000080E0301C1D
:1000C00006FFFFFFFF0100000404FCFCFC04040029
:1000D000003078FCC4C4C4848484840C00000030E4
:1000E00078FCC4C4C4848484840C000000C0E0F0A4
:1000F000180C04040404040404040C0C3CF8F0E0A0
:1001000004041CFCFCFC04000000000000000404CB
:1001100004FC040404FCFCFC04040404848CF8784F
:100120007000000404FCFCFCFC040400000020201F
:100130003F2020200001030F1F1E0C07010000209C
:10014000203F3F3F3F20200020203F3F3F20200016
:1001500000302020202020212121331F0F000010FB
:100160002020202020212121331F0F0000030F0F0A
:100170001E1830202020202020202030180F0F03B0
:100180000000000F1F1F30202020202020201010F2
:100190000C070000203F3F3F31212103070F1E1CA9
:1001A00038302020203F3F3F3F202000000000004B
:1001B0000000008080C0C0E0E0E0F0F0F0F0F8F86F
:1001C000F87878787878787878787878787878782F
:1001D000F8F8F8F8F8F8F8F8F8F0F0E000000000A7
:1001E000000000000000000000000000000000808F
:1001F000F0F8F8F8F8F8F8F8F8F8F8F8F8F8F8F887
:10020000F8F8F8F8F8F8F8F8F8F8F8F8F8F8F8F86E
:10021000F8F8F8F8F8F8F8F8F8F8F8F8F8F8F8F85E
:10022000F8F8F8F8F8F8F8F8F8F8C0000000F0FC72
:10023000FEFEFFFFFFFFFFFFFFFFFFFF8301010047
:1002400000000000000000000000000000000000AE
:1002500000000001010303070F1F1F1F080000001B
:100260000000000000000000000000000000081F67
:100270001F0F070303010101000000000000000040
:100280000000000000FFFFFFFFFFFFFFFFFFFFFF79
:10029000FFFFFFFFFF000000000000000000000063
:1002A00000000101010303070F1F1F1C00000F1FA7
:1002B0003F7FFFFFFFFFFFFFFFFFFFFFFFFFFFFE8F
:1002C000FEFEFCFCFCF8F8F8F8F0F0F0F0E0E0E0FE
:1002D000C0C0C0C08080000000000000000000001E
:1002E00000F8FCFEFEFFFFFFFFEF8703030303039D
:1002F00003070606000000000000000000000000E8
:10030000000000007E7F7F7FFFFFFFFFFFFFFFFFFA
:10031000FFFFFFFFFFFC00000000000000000000E6
:1003200000000000000000000000000000000000CD
:1003300000000000010103030707070F0F0F0F1F45
:100340001F1F1F3F3F3F3F7F7F7FFFFFFFFFFFFFDD
:10035000FFFFFFFFFFFF7F1F0F0684C0E0F0F0F8F4
:10036000F8F9FF7F1F1F3F3F7FFFFFFFFFFEFCF8F5
:10037000F8F0F0F8D89C1C1C0E0E0E1EFEFEFEFEC1
:100380000E0E0E0E9E9C1C1C383830610303071F96
:10039000FFFFFFFFFFFF0000000000000000000063
:1003A00000000000000000000000000060F0F0E02D
:1003B000C0800000000000000000000000000000FD
:1003C0000000000000000000000000000001010328
:1003D000FFFFFFFFFFFFE0C080000F3F7F7FFFFFB9
:1003E000FFFFFFFEF8F0E0C0C08081810307070F28
:1003F0001F1F3FBFFFFFFFFFFEFCFCFCFFFFFFFFD7
:1004000000000000FFFFFFFFFFFEFEFEFCFCFEFE03
:10041000FFFFFFFFFFFF00000000000000000000E2
:1004200000000000000000000000000000073F3F47
:100430003F7F7F7E7E7C7C7C78F8F8F8F0F0F0F0EF
:10044000F0F0F0F0F0F0F0F8F87878787C7C7E7FCF
:100450003F3F3F1F1F1F0F0F070302000000000058
:100460000101010303030303030307070707030352
:1004700003030303030101010103030323637373F4
:10048000707078787F7F7F7F7F7F7F7F7F7F7F7FA8
:100490007F7F7F7F7F7F7C787070707060600000EE
:1004A00000000000000000000000000011241FBE3A
:1004B000CFEFDAE0DEBFCDBF11E0A0E0B1E0E2E7D0
:1004C000FFE002C005900D92A230B107D9F721E0FC
:1004D000A2E0B1E001C01D92A930B207E1F70E948D
:1004E000AF060C94B7070C940000282F269526958C
:1004F0002695962F969596959695291761F0877073
:1005000021E030E0A90102C0440F551F8A95E2F7AF
:10051000CA0181950895677021E030E0A90102C009
:10052000440F551F6A95E2F74150877002C0220FB1
:10053000331F8A95E2F72195842F822308950E9424
:100540005F060E9469060895862F60E00E9480067B
:1005500008951F93CF93DF93EC019881892F8F5FCC
:100560008F779078982B9883982F9F73E1F590E080
:10057000CF9611E08F37910508F410E088818F77CE
:1005800081F429812F73822F90E0C89724F4822F61
:10059000885F8F7301C080E08F739981907C892B75
:1005A0008983412F60E4CE010E94A4028981682FD3
:1005B0006F7370E0772314F4695F7F4F75956795CB
:1005C000759567957595679567707078772334F49E
:1005D00061507109686F7F6F6F5F7F4F6854412F63
:1005E000CE010E94A402DF91CF911F9108951F9325
:1005F000CF93DF93EC0188818F7790E0CF9661E015
:100600008F37910508F460E081E00E949506182F6D
:10061000CE010E94A902812FDF91CF911F910895F1
:10062000CF93DF93EC01862F28812F7730E0215C78
:100630003F4F41E02F37310508F440E061E00E9470
:100640008006CE010E94A902DF91CF910895CF9339
:10065000DF93EC016536A8F54981862F90E0880F7D
:10066000991F9C01220F331F220F331F820F931FEC
:1006700088589F4F6DE770E00E948F0788E0861BC7
:10068000682F8795882787954F73482B4983962F26
:10069000969593708A818C7F892B8A836770685DB9
:1006A00040E0CE010E94A4028981881F8827881F0C
:1006B0006A816370660F682B685D41E0CE010E941D
:1006C000A402DF91CF910895CF93DF93EC0140E036
:1006D0006FE30E94A40241E06FE3CE010E94A402F6
:1006E0008981881F8827881F6A816370660F682B3D
:1006F000CE010E942703888180688883DF91CF9193
:1007000008950F931F93CF93DF93EC01162F042FBF
:1007100066230CF455C0403408F052C088818F77AE
:10072000861751F041E0603408F440E0612F6F73A8
:10073000605CCE010E94A402212F22952695269569
:10074000237030E04881842F8F7790E099230CF458
:10075000CF96082E892F000C881F990B000C881F3C
:10076000991F28173907A9F4202F26952695269535
:1007700030E04981842F8F7390E099230CF4079621
:100780009595879595958795959587952817390718
:1007900069F041E0103408F440E0602F66956695FA
:1007A000669567706854CE010E94A4020F73898118
:1007B000807C082B09831F7788818078182B188309
:1007C000DF91CF911F910F9108952F923F924F92F9
:1007D0005F926F927F928F929F92AF92BF92CF92D1
:1007E000DF92EF92FF920F931F93CF93DF93CDB7DA
:1007F000DEB72D970FB6F894DEBF0FBECDBF3C011C
:100800004B01542E122FCD8244230CF4C8C1203446
:1008100008F0C5C1802F90E0840F911D80389105AC
:1008200014F000E8041B212F30E03F832E83C90120
:100830008E0D911D803491051CF080E4E82EE11AA4
:10084000F301828185FF03C044244A9401C0412CF6
:10085000FE2DF10FFB830F2EF8EFCF2EF02DC122CE
:10086000F87FFA83CF123AC06B81812F0E94750204
:10087000E82E002309F493C1050DF12C1770B82E52
:10088000B094552094F02FE32C1588F04C2D652D55
:10089000C3010E948103C3010E94F702D82E4C2D90
:1008A000652DC3010E94810303C0DF2C01C0DF2C32
:1008B000F4016491012E01C0660F0A94EAF76E21DB
:1008C0008D2D8B21682B6425C3010E941003539446
:1008D000FFEF8F1A9F0A5012D4CF61C11C115BC069
:1008E0002A811217F0F43D81A32EB12CD22E412F74
:1008F000652DC3010E948103002371F07401F7018B
:1009000064916425C3010E941003FFEFEF1AFF0AF0
:100910008E2D8819801798F38A0C9B1C185F1D1563
:1009200030F32B813A81231709F439C1622F832FC9
:100930000E947502E82E002309F431C1050DF12C47
:10094000182F1095CA80552094F08FE38C1588F0ED
:100950004C2D652DC3010E948103C3010E94F70243
:10096000D82E4C2D652DC3010E94810303C0DF2CBE
:1009700001C0DF2CF40164916E218D2D8123682B41
:100980006425C3010E9410035394FFEF8F1A9F0A3E
:100990005012D9CF04C18E819F8107969595879576
:1009A0009595879595958795282F220F220F220FD1
:1009B0002887622F812F0E947502382E54013D81B5
:1009C0003E9DA00CB11C11240023B9F17401802FAD
:1009D000850DD52C17701C83232C2094182FCD86C1
:1009E000CC80DD2094F0FD85F03488F44F2F6D2D00
:1009F000C3010E948103C3010E94F70289834D85D0
:100A00006D2DC3010E94810303C0198201C01982A8
:100A1000F70164910C2C01C0660F0A94EAF7632178
:100A200089818221682B6425C3010E941003D3941D
:100A3000FFEFEF1AFF0AD112D4CF3A8188858317CE
:100A400008F044C0182F9D81E92EF12C90E06C0134
:100A5000EE81FF81CE1ADF0A212C312C19835C82B2
:100A6000502E49816C81C3010E948103552021F1E0
:100A70008401F801649170E00A151B0538F4F70150
:100A8000E00FF11FE491EA87198602C03A862986B1
:100A900029853A85620F731F0C2C02C076956795E5
:100AA0000A94E2F76425C3010E9410030F5F1F4FF1
:100AB000802F88198515E8F28E0C9F1C9981985F0C
:100AC0009983EA819E1768F2052D5C80FB812A815B
:100AD000F21709F464C06F2F822F0E947502002361
:100AE00009F45DC0202E250C3D81C32ED12C9885A4
:100AF000E92EF12CEE81FF81EE1AFF0A282F30E05B
:100B000089010095109549822B82352C26016701B9
:100B10003F832E83332094F03A81303488F4432F7E
:100B2000632DC3010E948103C3010E94F702282E96
:100B30004A81632DC3010E94810303C0212C01C09F
:100B4000212CF401849190E08A149B0438F4F20182
:100B5000E80DF91DE491FE2EE12C02C0E12CF12CF0
:100B60008E0D9F1DBC010C2C02C0769567950A94D2
:100B7000E2F72E813F8162237323222D30E0202370
:100B80003123622B732B39816327C3010E94100329
:100B900033948FEF881A980A9B813912BBCF2D9618
:100BA0000FB6F894DEBF0FBECDBFDF91CF911F917E
:100BB0000F91FF90EF90DF90CF90BF90AF909F90FC
:100BC0008F907F906F905F904F903F902F900895FF
:100BD000CF92EF920F93C02E0E94E5030F91EF90FA
:100BE000CF90089540E060E00E94810308950F9344
:100BF0001F93CF93DF938C010E94F205C0E0D4E0F5
:100C000060E0C8010E9410032197D1F7DF91CF91D6
:100C10001F910F910895FC0174836383458326839C
:100C20000895CF93DF93EC010E945F0620E040E03F
:100C300060E070E0CE010E940B068A81837E8460B2
:100C40008A8364E6CE010E94270340E060ECCE0177
:100C50000E94A40241E060ECCE010E94A402CE01F9
:100C60000E94640340E060E4CE010E94A40241E0DF
:100C700060E4CE010E94A40240E068EBCE010E9435
:100C8000A40241E068EBCE010E94A4028881807832
:100C900088838981807C8983DF91CF91089528E0C2
:100CA00030E090E8492F482311F0589A01C0589835
:100CB0005C985C9A969521503109A1F708955C9A49
:100CC0005B9A599A5A9A509A549A539A519A529AAC
:100CD00008950E945F065B982FEF81EE94E021500B
:100CE00080409040E1F700C000005B9A2FEF81EE5A
:100CF00094E0215080409040E1F700C0000008954A
:100D0000CF93C82F599A5A9A442319F0599A5A984E
:100D100002C059985A9A862F880F88500E944F0611
:100D20008C2F0E944F06CF910895599A5A9A6623A4
:100D300019F0599A5A9802C059985A9A880F8450B3
:100D40000E944F0628E030E090E880E05C985C9AD2
:100D50004E99892B969521503109C1F7089583E06A
:100D600084B9EAE7F0E0808187608083ACE7B0E097
:100D70008C9180668C938081886A8083789480814E
:100D800080648083E1E8F0E08081836080832FEFDE
:100D900089E698E1215080409040E1F700C00000D2
:100DA00082E091E00E949F0282E091E00E941106A1
:100DB00082E091E00E94F7056894EE24E6F800E8EE
:100DC00020E040E06CEA70E082E091E00E94E805FB
:100DD0002FEF80E792E0215080409040E1F700C083
:100DE0000000F6CF1F920F920FB60F9211242F938F
:100DF0003F934F935F936F937F938F939F93AF93A3
:100E0000BF93EF93FF9380917900893C80F415B8EC
:100E100080918400909185008135934C08F46EC0D8
:100E200010928100109285001092840067C080911A
:100E30007900893C08F445C0809179008D3D08F423
:100E400045C03FC080910001863158F0809100017B
:100E50008D50809300016091000182E091E00E943A
:100E6000270310928100109285001092840046C0E2
:100E7000E1E8F0E080818081836080833FC08091E1
:100E800079008B3E88F12DC080910001883558F49F
:100E900080910001835F809300016091000182E0F6
:100EA00091E00E9427031092810010928500109219
:100EB000840024C0E1E8F0E0808180818360808349
:100EC0001DC0809179008D3DD0F60BC081E085B9C1
:100ED000809184009091850089399A4308F0B2CFBF
:100EE000C7CF83E085B90AC082E085B980918400CC
:100EF0009091850089399A4338F6DCCFFF91EF91C4
:100F0000BF91AF919F918F917F916F915F914F9121
:100F10003F912F910F900FBE0F901F90189597FB48
:100F2000072E16F4009407D077FD09D00E94A3077E
:100F300007FC05D03EF4909581959F4F08957095DC
:100F400061957F4F0895AA1BBB1B51E107C0AA1FE3
:100F5000BB1FA617B70710F0A61BB70B881F991F5A
:100F60005A95A9F780959095BC01CD010895F89404
:020F7000FFCFB1
:020F7200640019
:00000001FF
