:100000000C9456020C9473020C9473020C947302B9
:100010000C9473020C9473020C9473020C9473028C
:100020000C9473020C9473020C9473020C9473027C
:100030000C9473020C9473020C9473020C9473026C
:100040000C9473020C9473020C9473020C9473025C
:100050000C9473020C9473020C9473020C9473024C
:100060000C9473020C9473020C9473020C9473023C
:100070000C9473020C9402030C9473020C9473029C
:100080000C9473020C9473020C9473020C9473021C
:100090000C9473020C9473020C9473020C9473020C
:1000A0000C9473020C9473020C947302000101030C
:1000B000FF071F3EFCF8E0C08000000080E0301C1D
:1000C00006FFFFFFFF0100000404FCFCFC04040029
:1000D000003078FCC4C4C4848484840C00000030E4
:1000E00078FCC4C4C4848484840C000000C0E0F0A4
:1000F000180C04040404040404040C0C3CF8F0E0A0
:1001000004041CFCFCFC04000000000000000404CB
:1001100004FC040404FCFCFC04040404848CF8784F
:100120007000000404FCFCFCFC040400000020201F
:100130003F2020200001030F1F1E0C07010000209C
:10014000203F3F3F3F20200020203F3F3F20200016
:1001500000302020202020212121331F0F000010FB
:100160002020202020212121331F0F0000030F0F0A
:100170001E1830202020202020202030180F0F03B0
:100180000000000F1F1F30202020202020201010F2
:100190000C070000203F3F3F31212103070F1E1CA9
:1001A00038302020203F3F3F3F202000000000004B
:1001B0000000008080C0C0E0E0E0F0F0F0F0F8F86F
:1001C000F87878787878787878787878787878782F
:1001D000F8F8F8F8F8F8F8F8F8F0F0E000000000A7
:1001E000000000000000000000000000000000808F
:1001F000F0F8F8F8F8F8F8F8F8F8F8F8F8F8F8F887
:10020000F8F8F8F8F8F8F8F8F8F8F8F8F8F8F8F86E
:10021000F8F8F8F8F8F8F8F8F8F8F8F8F8F8F8F85E
:10022000F8F8F8F8F8F8F8F8F8F8C0000000F0FC72
:10023000FEFEFFFFFFFFFFFFFFFFFFFF8301010047
:1002400000000000000000000000000000000000AE
:1002500000000001010303070F1F1F1F080000001B
:100260000000000000000000000000000000081F67
:100270001F0F070303010101000000000000000040
:100280000000000000FFFFFFFFFFFFFFFFFFFFFF79
:10029000FFFFFFFFFF000000000000000000000063
:1002A00000000101010303070F1F1F1C00000F1FA7
:1002B0003F7FFFFFFFFFFFFFFFFFFFFFFFFFFFFE8F
:1002C000FEFEFCFCFCF8F8F8F8F0F0F0F0E0E0E0FE
:1002D000C0C0C0C08080000000000000000000001E
:1002E00000F8FCFEFEFFFFFFFFEF8703030303039D
:1002F00003070606000000000000000000000000E8
:10030000000000007E7F7F7FFFFFFFFFFFFFFFFFFA
:10031000FFFFFFFFFFFC00000000000000000000E6
:1003200000000000000000000000000000000000CD
:1003300000000000010103030707070F0F0F0F1F45
:100340001F1F1F3F3F3F3F7F7F7FFFFFFFFFFFFFDD
:10035000FFFFFFFFFFFF7F1F0F0684C0E0F0F0F8F4
:10036000F8F9FF7F1F1F3F3F7FFFFFFFFFFEFCF8F5
:10037000F8F0F0F8D89C1C1C0E0E0E1EFEFEFEFEC1
:100380000E0E0E0E9E9C1C1C383830610303071F96
:10039000FFFFFFFFFFFF0000000000000000000063
:1003A00000000000000000000000000060F0F0E02D
:1003B000C0800000000000000000000000000000FD
:1003C0000000000000000000000000000001010328
:1003D000FFFFFFFFFFFFE0C080000F3F7F7FFFFFB9
:1003E000FFFFFFFEF8F0E0C0C08081810307070F28
:1003F0001F1F3FBFFFFFFFFFFEFCFCFCFFFFFFFFD7
:1004000000000000FFFFFFFFFFFEFEFEFCFCFEFE03
:10041000FFFFFFFFFFFF00000000000000000000E2
:1004200000000000000000000000000000073F3F47
:100430003F7F7F7E7E7C7C7C78F8F8F8F0F0F0F0EF
:10044000F0F0F0F0F0F0F0F8F87878787C7C7E7FCF
:100450003F3F3F1F1F1F0F0F070302000000000058
:100460000101010303030303030307070707030352
:1004700003030303030101010103030323637373F4
:10048000707078787F7F7F7F7F7F7F7F7F7F7F7FA8
:100490007F7F7F7F7F7F7C787070707060600000EE
:1004A00000000000000000000000000011241FBE3A
:1004B000CFEFDAE0DEBFCDBF11E0A0E0B1E0EAE0CF
:1004C000F2E102C005900D92AA31B107D9F721E0FF
:1004D000AAE1B1E001C01D92AB32B207E1F70E9480
:1004E00075020C9403090C94000083E084B9EAE7D8
:1004F000F0E0808187608083ACE7B0E08C9180661B
:100500008C938081886A80837894808180648083E2
:10051000E1E8F0E08081836080832FEF89E698E155
:10052000215080409040E1F700C0000084E291E05B
:100530000E949A0484E291E00E940C0884E291E017
:100540000E94F2076894EE24E6F800E820E040E01C
:100550006CEA70E084E291E00E94E3078CE00E9484
:100560003A040E94080482E091E00E942C0462E0B8
:1005700080E00E94EE038FE091E00E942C04C9E726
:10058000D0E080910001882399F1809101014AE037
:1005900050E06AE171E090E00E94D20860E08CE0F7
:1005A0000E94EE0385E191E00E942C0460E08CE063
:1005B0000E94EE038AE191E00E942C0462E085E053
:1005C0000E94EE0385E191E00E942C0462E085E048
:1005D0000E94EE0388814AE050E06AE171E090E019
:1005E0000E94D2088AE191E00E942C04109200013E
:1005F0002FEF80E792E0215080409040E1F700C06B
:100600000000BFCF1F920F920FB60F9211242F93AD
:100610003F934F935F936F937F938F939F93AF938A
:10062000BF93EF93FF9380917900893C78F4809198
:100630008400909185008135934C08F46DC0109230
:100640008100109285001092840066C0809179002C
:10065000893C08F44BC0809179008D3D08F44BC073
:1006600045C080910101863170F0809101018D506B
:10067000809301016091010184E291E00E942205D2
:1006800081E0809300011092810010928500109209
:10069000840042C0E1E8F0E0808180818360808353
:1006A0003BC0809179008B3E78F136C0809101018A
:1006B000883570F480910101835F8093010160911E
:1006C000010184E291E00E94220581E08093000113
:1006D0001092810010928500109284001DC0E1E804
:1006E000F0E0808180818360808316C080917900F2
:1006F0008D3DB8F611C080918400909185008939B4
:100700009A4308F0AECFC6CF8091840090918500C7
:1007100089399A4358F6E3CFFF91EF91BF91AF919A
:100720009F918F917F916F915F914F913F912F9109
:100730000F900FBE0F901F9018952E9A00C02E9804
:100740000895CF93DF93D82F662311F02C9A01C020
:100750002C982D9884B18F6084B9C5B1C07F8D2F3E
:1007600082958F708C2B85B90E949D03DF70DC2BE6
:10077000D5B90E949D03CF60C5B9DF91CF9108958F
:10078000882311F02C9A01C02C982D9A84B1807F77
:1007900084B92E9A00C093B12E9800C02E9A00C042
:1007A00083B12E989295907F8F70892B089580E069
:1007B0000E94C0038823DCF388E090E00197F1F702
:1007C00080E00E94C0030895CF93C82F0E94D703F2
:1007D00060E08C2F0E94A103CF910895611104C0A5
:1007E00080580E94E4030895613021F480540E94EF
:1007F000E4030895623021F48C560E94E4030895C6
:100800008C520E94E403089581E00E94E40308955D
:1008100082E00E94E4030895CF93C82F0E94D7037B
:10082000CA30A1F4843148F0982F9054943138F0B4
:1008300084518C3230F484E505C080E403C084E147
:1008400001C080E080580E94E40304C061E08C2F66
:100850000E94A103CF910895CF93DF93EC0189917A
:10086000882329F00E940C0489918111FBCFDF912C
:10087000CF9108951F93CF93DF93182F84B18F6783
:1008800084B9E0E0FAEF3197F1F7299A289A0E94AB
:100890009D03E0E0FEE43197F1F70E949D03C0E084
:1008A000D1E0FE013197F1F70E949D03FE013197DF
:1008B000F1F728980E949D032197F1F788E20E94A2
:1008C000E40388E00E94E4030E94040486E00E949E
:1008D000E403812F0E94E403DF91CF911F910895DB
:1008E000282F269526952695962F9695969596953A
:1008F000291761F0877021E030E0A90102C0440FA0
:10090000551F8A95E2F7CA0181950895677021E025
:1009100030E0A90102C0440F551F6A95E2F741502B
:10092000877002C0220F331F8A95E2F72195842F2A
:10093000822308950E945A080E9464080895862F11
:1009400060E00E947B0808951F93CF93DF93EC0132
:100950009881892F8F5F8F779078982B9883982F25
:100960009F73E1F590E0CF9611E08F37910508F481
:1009700010E088818F7781F429812F73822F90E096
:10098000C89724F4822F885F8F7301C080E08F7333
:100990009981907C892B8983412F60E4CE010E944C
:1009A0009F048981682F6F7370E0772314F4695F67
:1009B0007F4F759567957595679575956795677080
:1009C0007078772334F461507109686F7F6F6F5FBF
:1009D0007F4F6854412FCE010E949F04DF91CF9139
:1009E0001F9108951F93CF93DF93EC0188818F7738
:1009F00090E0CF9661E08F37910508F460E081E0E8
:100A00000E949008182FCE010E94A404812FDF912C
:100A1000CF911F910895CF93DF93EC01862F28810A
:100A20002F7730E0215C3F4F41E02F37310508F44C
:100A300040E061E00E947B08CE010E94A404DF91A7
:100A4000CF910895CF93DF93EC016536A8F54981E6
:100A5000862F90E0880F991F9C01220F331F220FD1
:100A6000331F820F931F88589F4F6DE770E00E94DD
:100A7000AA0888E0861B682F8795882787954F737B
:100A8000482B4983962F969593708A818C7F892B6A
:100A90008A836770685D40E0CE010E949F0489816F
:100AA000881F8827881F6A816370660F682B685DBE
:100AB00041E0CE010E949F04DF91CF910895CF9332
:100AC000DF93EC0140E06FE30E949F0441E06FE39D
:100AD000CE010E949F048981881F8827881F6A8110
:100AE0006370660F682BCE010E94220588818068A2
:100AF0008883DF91CF9108950F931F93CF93DF9356
:100B0000EC01162F042F66230CF455C0403408F076
:100B100052C088818F77861751F041E0603408F425
:100B200040E0612F6F73605CCE010E949F04212F13
:100B3000229526952695237030E04881842F8F7763
:100B400090E099230CF4CF96082E892F000C881F73
:100B5000990B000C881F991F28173907A9F4202F1B
:100B600026952695269530E04981842F8F7390E055
:100B700099230CF407969595879595958795959566
:100B800087952817390769F041E0103408F440E0F0
:100B9000602F66956695669567706854CE010E94D1
:100BA0009F040F738981807C082B09831F778881BC
:100BB0008078182B1883DF91CF911F910F910895A2
:100BC0002F923F924F925F926F927F928F929F925D
:100BD000AF92BF92CF92DF92EF92FF920F931F934B
:100BE000CF93DF93CDB7DEB72D970FB6F894DEBF66
:100BF0000FBECDBF3C014B01542E122FCD8244239A
:100C00000CF4C8C1203408F0C5C1802F90E0840FD7
:100C1000911D8038910514F000E8041B212F30E06D
:100C20003F832E83C9018E0D911D803491051CF0E8
:100C300080E4E82EE11AF301828185FF03C0442499
:100C40004A9401C0412CFE2DF10FFB830F2EF8EFCB
:100C5000CF2EF02DC122F87FFA83CF123AC06B81DC
:100C6000812F0E947004E82E002309F493C1050D22
:100C7000F12C1770B82EB094552094F02FE32C155A
:100C800088F04C2D652DC3010E947C05C3010E9494
:100C9000F204D82E4C2D652DC3010E947C0503C0A3
:100CA000DF2C01C0DF2CF4016491012E01C0660F1E
:100CB0000A94EAF76E218D2D8B21682B6425C301E0
:100CC0000E940B055394FFEF8F1A9F0A5012D4CF46
:100CD00061C11C115BC02A811217F0F43D81A32E63
:100CE000B12CD22E412F652DC3010E947C0500231B
:100CF00071F07401F70164916425C3010E940B0532
:100D0000FFEFEF1AFF0A8E2D8819801798F38A0CCF
:100D10009B1C185F1D1530F32B813A81231709F4B2
:100D200039C1622F832F0E947004E82E002309F43A
:100D300031C1050DF12C182F1095CA80552094F063
:100D40008FE38C1588F04C2D652DC3010E947C0526
:100D5000C3010E94F204D82E4C2D652DC3010E94C0
:100D60007C0503C0DF2C01C0DF2CF40164916E21EF
:100D70008D2D8123682B6425C3010E940B0553949C
:100D8000FFEF8F1A9F0A5012D9CF04C18E819F8125
:100D90000796959587959595879595958795282F8D
:100DA000220F220F220F2887622F812F0E947004AA
:100DB000382E54013D813E9DA00CB11C112400230E
:100DC000B9F17401802F850DD52C17701C83232C4D
:100DD0002094182FCD86CC80DD2094F0FD85F03452
:100DE00088F44F2F6D2DC3010E947C05C3010E9422
:100DF000F20489834D856D2DC3010E947C0503C0DB
:100E0000198201C01982F70164910C2C01C0660F90
:100E10000A94EAF7632189818221682B6425C30142
:100E20000E940B05D394FFEFEF1AFF0AD112D4CF23
:100E30003A818885831708F044C0182F9D81E92ED8
:100E4000F12C90E06C01EE81FF81CE1ADF0A212C9B
:100E5000312C19835C82502E49816C81C3010E9420
:100E60007C05552021F18401F801649170E00A1598
:100E70001B0538F4F701E00FF11FE491EA871986AA
:100E800002C03A86298629853A85620F731F0C2C89
:100E900002C0769567950A94E2F76425C3010E9423
:100EA0000B050F5F1F4F802F88198515E8F28E0CF8
:100EB0009F1C9981985F9983EA819E1768F2052D9E
:100EC0005C80FB812A81F21709F464C06F2F822FA6
:100ED0000E947004002309F45DC0202E250C3D8182
:100EE000C32ED12C9885E92EF12CEE81FF81EE1ACC
:100EF000FF0A282F30E089010095109549822B8246
:100F0000352C260167013F832E83332094F03A81EC
:100F1000303488F4432F632DC3010E947C05C30144
:100F20000E94F204282E4A81632DC3010E947C0591
:100F300003C0212C01C0212CF401849190E08A147B
:100F40009B0438F4F201E80DF91DE491FE2EE12C2A
:100F500002C0E12CF12C8E0D9F1DBC010C2C02C097
:100F6000769567950A94E2F72E813F816223732379
:100F7000222D30E020233123622B732B398163270C
:100F8000C3010E940B0533948FEF881A980A9B8146
:100F90003912BBCF2D960FB6F894DEBF0FBECDBF72
:100FA000DF91CF911F910F91FF90EF90DF90CF9045
:100FB000BF90AF909F908F907F906F905F904F9079
:100FC0003F902F900895CF92EF920F93C02E0E94E2
:100FD000E0050F91EF90CF90089540E060E00E940F
:100FE0007C0508950F931F93CF93DF938C010E948C
:100FF000ED07C0E0D4E060E0C8010E940B05219736
:10100000D1F7DF91CF911F910F910895FC01748367
:101010006383458326830895CF93DF93EC010E9479
:101020005A0820E040E060E070E0CE010E9406082F
:101030008A81837E84608A8364E6CE010E942205D1
:1010400040E060ECCE010E949F0441E060ECCE01E4
:101050000E949F04CE010E945F0540E060E4CE0143
:101060000E949F0441E060E4CE010E949F0440E0A2
:1010700068EBCE010E949F0441E068EBCE010E9424
:101080009F048881807888838981807C8983DF912F
:10109000CF91089528E030E090E8492F482311F0DF
:1010A000589A01C058985C985C9A969521503109DD
:1010B000A1F708955C9A5B9A599A5A9A509A549A51
:1010C000539A519A529A08950E945A085B982FEFAA
:1010D00081EE94E0215080409040E1F700C0000094
:1010E0005B9A2FEF81EE94E0215080409040E1F731
:1010F00000C000000895CF93C82F599A5A9A4423EC
:1011000019F0599A5A9802C059985A9A862F880FFE
:1011100088500E944A088C2F0E944A08CF91089557
:10112000599A5A9A662319F0599A5A9802C05998AE
:101130005A9A880F84500E944A0828E030E090E8CC
:1011400080E05C985C9A4E99892B969521503109E4
:10115000C1F7089597FB072E16F4009407D077FD8A
:1011600009D00E94BE0807FC05D03EF490958195F9
:101170009F4F0895709561957F4F0895AA1BBB1BE3
:1011800051E107C0AA1FBB1FA617B70710F0A61B87
:10119000B70B881F991F5A95A9F780959095BC01A8
:1011A000CD010895FB019F01E8944230C4F045321F
:1011B000B4F44A3029F497FB1EF4909581959F4F23
:1011C000642F77270E94BE08805D8A330CF0895D0A
:1011D0008193CB010097A1F716F45DE25193108241
:1011E000C9010C94F308DC01FC01672F719177238E
:1011F000E1F7329704C07C916D9370836291AE17D2
:0A120000BF07C8F30895F894FFCF6C
:10120A0001644272696768746E6573733A200041BB
:0A121A0044433A2000202020000089
:00000001FF
